:020000040800F2
:10000000C0230020D5000008D10D000849070008D2
:1000100000000000000000000000000000000000E0
:10002000000000000000000000000000CD120008E9
:100030000000000000000000D30D0008CF120008EF
:10004000E700000800000000E7000008E7000008E3
:10005000E7000008E7000008E7000008E7000008E4
:1000600000000000E7000008E7000008E7000008C3
:10007000E7000008E7000008E700000800000000B3
:10008000E7000008E7000008E7000008E7000008B4
:10009000E7000008E7000008E7000008E7000008A4
:1000A000E7000008E9110008E7000008E700000881
:1000B000E7000008D51500080348854600F08EF8D3
:1000C00000480047551D0008C023002080F3088821
:1000D000704700000448804704480047FEE7FEE7F9
:1000E000FEE7FEE7FEE7FEE731140008B90000086E
:1000F00030B50B46014600202022012409E00D46C0
:10010000D5409D4205D31D469540491B2546954047
:1001100040191546521E002DF1DC30BD70B500248B
:100120002546002801DA01244042002901DA012590
:100130004942FFF7DDFFAC4200D04042002C00D026
:10014000494270BD10B5202A04DB0846203AD04051
:10015000002110BD0B46D340D0402024A21A91406C
:100160000843194610BD03460B439B0703D009E023
:1001700008C9121F08C0042AFAD203E00B780370E2
:10018000401C491C521EF9D27047D2B201E00270E5
:10019000401C491EFBD270470022F6E710B51346FB
:1001A0000A4604461946FFF7F0FF204610BD30B559
:1001B00004460020034600E05B1C934203D2E05C4F
:1001C000CD5C401BF8D030BD03460A780270401C5D
:1001D000491C002AF9D1184670470000064C012539
:1001E000064E05E0E36807CC2B430C3C98471034DF
:1001F000B442F7D3FFF764FF0C2000082C2000085E
:1002000010B5044600F0ABF90121C9030520000731
:1002100000F0E7FBD82000F06FF9FF21090421402E
:10022000080C00F069F9FF2109022140080A00F0DA
:1002300063F9E0B200F060F90121C903052000076D
:1002400000F0D1FB00F070F910BD70B505460C460A
:1002500016460121C9030520000700F0C2FB032058
:1002600000F04AF9FF2109042140080C00F044F98C
:10027000FF2109022140080A00F03EF9E0B200F037
:100280003BF904E0A52000F037F928706D1C3046DA
:10029000711E8EB20028F5D10121C9030520000787
:1002A00000F0A1FB70BD000000B58BB000F0D8F8E5
:1002B000012000031E49096801431D4A11601146CF
:1002C00009680140009100BF00BFC1000520000780
:1002D00000F089FB0820079000200890012005907D
:1002E000022004900020099007200A900002039049
:1002F000FF2005300290012040020690002001906E
:10030000012000030B494968024691430143094A11
:10031000516000BF01A9104600F030FC00BF054845
:100320000068402108430349086000BF0BB000BDCE
:100330004010024000300140F0B585B007460E463F
:100340001446002003900290019000250090F0B226
:100350000190FF2101310198081AC5B22046E1172A
:10036000090E09180904090E0391E117090E09186D
:1003700009120902611AC9B20291019800281FD11D
:100380000398002805D122463146384600F0F8F897
:1003900064E009E0FF2201323146384600F0F0F80F
:1003A000FF360136FF3701370398411EC9B203916A
:1003B0000028EFD131463846029A00F0E1F84DE0CE
:1003C0000398002819D10298A84210DD0298401B1A
:1003D000C0B200902A463146384600F0D1F876196E
:1003E0007F1931463846009A00F0CAF836E02246B6
:1003F0003146384600F0C4F830E0601B84B2204635
:10040000E117090E09180904090E0391E117090EF5
:10041000091809120902611AC9B202912A46314625
:10042000384600F0ADF876197F1909E0FF22013255
:100430003146384600F0A4F8FF360136FF37013761
:100440000398411EC9B203910028EFD102980028F9
:1004500004D031463846029A00F092F805B0F0BD5B
:1004600000B587B0022000F0C1FA012000F0BEFA0A
:10047000202001900220029003900020049001208F
:1004800005900020069001A91A4800F02DFA1020CE
:10049000019002200290039000200490012005901A
:1004A0000020069001A9134800F01EFA08200190D0
:1004B000022002900390002004900120059000206B
:1004C000069001A90B4800F00FFA0120C00301902B
:1004D000012002900220039000200490012005904A
:1004E0000020069001A90520000700F0FDF907B0E3
:1004F00000BD00000004005010B5044600BF0948CC
:1005000000F080FB0028FAD00648047300BF00BF4B
:10051000044800F06FFB0028FAD000BF0148C06813
:10052000C0B210BD0030014010B500240121C90344
:100530000520000700F055FA0520FFF7DDFF00BF9A
:10054000A520FFF7D9FF0446E007C00F0028F7D128
:100550000121C9030520000700F045FA10BD10B5C0
:100560000121C9030520000700F03BFA0620FFF730
:10057000C3FF0121C9030520000700F034FA10BDB4
:1005800070B505460C461646FFF7E9FF0121C90381
:100590000520000700F025FA0220FFF7ADFFFF213C
:1005A00009042140080CFFF7A7FFFF2109022140A1
:1005B000080AFFF7A1FFE0B2FFF79EFF03E02878EB
:1005C000FFF79AFF6D1C3046711E8EB20028F6D1DF
:1005D0000121C9030520000700F005FAFFF7A4FF79
:1005E00070BD000010B5F4211448FFF7D5FDF422CA
:1005F0000121C9041148FFF728FE104A993210A1C1
:10060000002000F0D3FC0D4AD21C12A1002000F003
:10061000CDFC0A48E030027B13A1002000F0C6FCAC
:100620000648803016A1026F002000F0BFFC034A8C
:10063000CB3219A1002000F0B9FC10BDCC04002081
:1006400041707049704164726573733A20202025AF
:10065000730D0A0041707046696C65506174683AA8
:1006600020202025730D0A00557067456E4A616D84
:10067000703A2020202020253032580D0A0000003A
:100680004170704C656E3A202020202020202025CB
:100690003032580D0A000000487474704572726F51
:1006A000723A202020202025730D0A0010B50B4837
:1006B0000078C007C00F002800D110BD00200749F6
:1006C00008700120C004FFF79BFDF4220121C9043A
:1006D0000348FFF731FE00BFEFE7000004000020F1
:1006E000CC04002000B587B0182101A8FFF754FD05
:1006F00001201449496B0143124A51631146496B69
:100700000140009100BF00BFC00201900120029093
:10071000002003900490059001A90520000700F037
:10072000E3F80120000301900120029000200390D3
:100730000490059001A90520000700F0D5F807B046
:1007400000BD00000010024000BFFEE708B50549EB
:10075000C96B0143034AD1631146C96B0140009143
:1007600000BF08BD00100240034800690121084392
:1007700001490861704700000020024003480069F9
:10078000012109040840000C7047000000200240CD
:1007900003480069012109040840000C704700006B
:1007A0000020024003480069C007C00F01214840F3
:1007B0004840704700200240F0B51FB484B0154691
:1007C0001E460024002002900498022802D1012035
:1007D000029007E00498012802D10220029001E073
:1007E0000220029000BFFFF7D3FF0028FBD10024B6
:1007F00010E062012F46384631460396FFF7A2FC0F
:10080000A1000190059808180090019900F013F8D4
:10081000601CC4B202988442EBDB00BFFFF7B8FF54
:100820000028FBD1FFF7BEFF002801D0FFF79CFF97
:10083000002009B0F0BD01607047000070B50446AB
:1008400000BFFFF7A5FF0028FBD10220144949692A
:100850000143134A516100BF10464569FF21F93138
:100860008D43E00028431146486108464069012154
:10087000090408431146486100BFFFF789FF0028BB
:10088000FBD1FFF78FFF002801D0FFF76DFF02209B
:10089000034949698143024A516100BF002070BD8C
:1008A000002002400B484069C00FC007002804D058
:1008B000094808498860094888600648406901215C
:1008C00089070840002804D005480249C860054847
:1008D000C86070470020024023016745AB89EFCD17
:1008E0003B2A19087F6E5D4CF0B502460B46002688
:1008F00061E00124B4401968214000295AD05868A9
:1009000014680D464D436F00ED19AC430D464D4341
:1009100045432C43146000BF5868012802D0586832
:1009200002280DD1986894680D464D436F00ED196B
:10093000AC430D464D4345432C43946000BF00BF7C
:100940001869D4680D464D436F00ED19AC430D4650
:100950004D4345432C43D46000BF5868022829D139
:10096000FF2911D85869146A0D464D434D434D4334
:100970002F017D1BAC430D464D434D434D43454335
:100980002C43146200BF15E05F69080A40430C0A5B
:1009900060430C0A60430401241A506AA0430C0A05
:1009A00064430D0A6C430D0A6C437C432043506240
:1009B00000BF00BF761C1868F040002899D1586825
:1009C000012802D05868022809D1DC6818685568E7
:1009D0008543074667433D43556000BF00BF002085
:1009E000F0BD8162704781617047000008B505491C
:1009F000496B0143034A51631146496B0140009121
:100A000000BF08BD0010024070B504467D25ED0012
:100A100029462046FFF76CFB401E04494861002030
:100A200088610520086100BF70BD000000E000E0A3
:100A300010B5044600F0F8F92060206800F0CAF90B
:100A40006060606800F0DCF9A06010BDF8B5044695
:100A50000025032C28D1204600F056F82104401A26
:100A600017D0012804D0022806D0032810D109E0AD
:100A700000F0DAF9054616E000F050F8012800D140
:100A8000204D10E000F054F8012800D1C5030AE021
:100A900000BF00F0C9F9074600F09CF9064600F0D7
:100AA000AFF9054600BF2AE00C2C28D1204600F003
:100AB0002BF82104401A17D0042804D0082806D0A7
:100AC0000C2810D109E000F0AFF9054616E000F05F
:100AD00025F8012800D10B4D10E000F029F801287D
:100AE00000D1C5030AE000BF00F09EF9074600F000
:100AF00071F9064600F084F9054600BF00BF28469C
:100B0000F8BD00000024F400014603484069084095
:100B10000A04104370470000401002400348006878
:100B2000012189020840800A70470000001002403D
:100B30000248C06902210840400870474010024046
:100B40000248C06870210840704700000010024051
:100B50000348C0687F2109020840000A704700006E
:100B60000010024004494969020C914382B21143CA
:100B7000014A5161704700004010024030B5024602
:100B8000012300BF1068402420408009002826D19E
:100B90004C6808682043CC6820430C6920434C69AA
:100BA00020438C692043CC6920430C6A204314689D
:100BB0000E4D2C40204310604C69240C8868204363
:100BC00054680B4D2C40204350605C03086AA042DF
:100BD00004D1486A84B2146100BF00BF0023D06909
:100BE0000124E402A043D061184630BD4000FFFF5D
:100BF000FBF0FFFF01468868C007C00F012250408C
:100C000050407047014688680222104040087047F3
:100C1000014908607047000000000020F0B585B071
:100C200004460D4601270026204600F073F80028F0
:100C300051D12969A868084369690843E9690843EB
:100C40002168264A114008432060E8686168032251
:100C5000120391430143616000BFA869A1681211AA
:100C600091430143A16000BF1D48844204D1032089
:100C7000FFF7ECFE064616E01A48844204D10C2029
:100C8000FFF7E4FE06460EE01748844204D101A8AF
:100C9000FFF7CEFE039E06E01448844203D101A86C
:100CA000FFF7C6FE039E002E0CD06868002809D00E
:100CB00000276868009031462046EB692A6800F0FA
:100CC00031F800BF2868E16A0909090182B21143BD
:100CD000E16200BF00BF384605B0F0BDF369FFEF29
:100CE000003801400044004000480040004C0040F3
:100CF0000146C86910221040000970470146C869C2
:100D000008221040C00870470146C86920221040E0
:100D10004009704701460868C007C00F01225040D3
:100D200050407047FFB583B0054614460C9E0B2C0F
:100D30002DD80121C9030698884219D12006800DBB
:100D4000144A11580498FFF7D3F94000710840186D
:100D500031460190FFF7CCF987B20F483840029036
:100D60003807400F0299084302900298E8600EE0AD
:100D70002006800D074A11580498FFF7B9F9710849
:100D8000401831460190FFF7B3F980B2E86007B030
:100D9000F0BD0000981F0008F0FF000008B50146F4
:100DA0000A4A1269009200BF0846421C002A00D07D
:100DB000401C07E0054A126901231B041A40002A5F
:100DC00000D0401E0028F5D108BD000000E000E082
:100DD00070477047014600BF074880680F22120223
:100DE00010401040000A8000044A105CC206D20E77
:100DF0000846D0407047000000100240381F00082D
:100E0000014600BF06488068072212031040000B0D
:100E10008000044A105CC206D20E0846D0407047DB
:100E200000100240781F000870B500BF11488068AC
:100E30003821084000280BD0082802D0102806D1FD
:100E400001E00D4C12E000F01BF804460EE000BF7C
:100E5000084800680721C9020840C10A01258D40E1
:100E600029460648FFF744F9044600BF00BF204664
:100E700070BD0000001002400048E8010024F400AA
:100E8000FEB500BF1348C0688007800F019001982D
:100E9000022802D0032804D101E00F4C03E00F4CDC
:100EA00001E00D4C00BF00BF00BF0A48C068400F02
:100EB000451CFFF745FE0009471CFFF749FE60434C
:100EC00039460090FFF714F906462946FFF710F956
:100ED000FEBD0000001002400024F4000048E801BC
:100EE000F8B504460D46164600BF0E4800780028A7
:100EF00001D100F0EBFB00BFEFF3108007460120AB
:100F000080F3108800BF00BF32462946204600F01B
:100F10000BF80090F8B280F3108800BF00BF009873
:100F2000F8BD000014000020F7B582B00746164651
:100F300003980190182078431B49401800900098AE
:100F40004069002804D0012811D0022826D11EE0D3
:100F5000009800F0F3FB0546B54201D2002405E0FD
:100F6000344632460199009800F06BFD18E0009875
:100F700000F0E4FB0546B54201D2284600E03046C9
:100F8000044622460199009800F05BFD08E03246D5
:100F90000199009800F018FD044601E0002400BF0C
:100FA00000BF204605B0F0BD2C0000200FB438B5BE
:100FB000044606A800906A462046059900F008F805
:100FC000054600200090284638BC08BC04B01847ED
:100FD000F7B59AB00D46144602A815904020169019
:100FE000002017901A9819900020189000BF2E78B2
:100FF0006D1C002E00D1E4E0252E79D100270120C0
:10100000149000BF2E78232E12D02B2E0CD02D2E14
:1010100002D0302E10D103E0012007436D1C0EE0FA
:10102000022007436D1C0AE0042007436D1C06E004
:10103000082007436D1C02E00020149000BF00BF91
:1010400014980028DED1129000BF2E78302E01DBDC
:10105000392E00DD08E06D1C0A2112984843314604
:10106000303940181290F0E700BF002013902E781E
:101070002E2E11D16D1C00BF2E78302E01DB392EA3
:1010800000DD08E06D1C0A211398484331463039D1
:1010900040181390F0E700BF2E7800BF6C2E01D0EF
:1010A000682E02D16D1C2E7800E000E0F6E700BF4C
:1010B000702E63D008DC252E72D0582E38D0632EC7
:1010C00009D0642E71D114E0732E40D0752E1FD03C
:1010D000782E6AD12BE02168081D206008681490E2
:1010E0001498C0B2019015A8019900F04BFC5DE086
:1010F0005FE02168081D206008681490129801972D
:1011000000900A2215A8139B149900F025FB4DE0CE
:101110002168081D206008681490129801970090BB
:101120000A2215A8139B149900F09EFB3EE000BF15
:101130002168081D2060086814901298019700909B
:10114000102215A8139B149900F08EFB2EE0216845
:10115000081D20600868019000BF0198067801987A
:10116000401C0190002E00D106E0314615A800F089
:1011700009FC18980028F0DA00BF17E02168081D64
:10118000206008681490002008210B46102200916E
:10119000019015A8149900F067FB07E000E004E057
:1011A000252115A800F0EEFB00E000BF00BF6D1C7C
:1011B00003E0314615A800F0E5FB1898002800DB95
:1011C00015E700BF189800280BDD1798002804D0F9
:1011D00002A9179A1A98FFF783FE179918984018D2
:1011E000189018981DB0F0BD704730B503460C46F6
:1011F0001546002207E0184600F008F891006050FC
:101200001B1D501C82B2AA42F5DB30BD01460868A6
:1012100070470000F7B504460F460120C00684421F
:1012200002D30E48844200D3FEBDFFF73BFB0120F2
:10123000C006261AF50A2846FFF700FB3946204665
:10124000029A00F00FF800BF054840690121C90764
:1012500008430349486100BF00BFE5E700000208FA
:1012600000200240FEB505460E46174600BF164850
:101270004069012108431449486100BF00BFFFF7DE
:101280007DFA0028FBD100240DE0E000301803C8EF
:1012900002460B460191009029460020FFF78CFA88
:1012A0000835601C84B2BC42EFDB00BFFFF766FA72
:1012B0000028FBD100BF04484069400840000249B3
:1012C000486100BFFEBD000000200240704770472B
:1012D00070B5012051490968C908C90001434F4A46
:1012E000116000BF00BF1046006800BF4C48006896
:1012F0000121090408434A49086000BF00BF00BF3C
:1013000047480068012149040840400C0028F6D0F5
:10131000032030210822930604460C4315022C4377
:101320001C433F4DED683F4E35402C433C4DEC6037
:1013300000BF00BF284600685105084329460860E1
:1013400000BF00BF0846C068090408432946C860BA
:1013500000BF00BF00BF32480068012149060840B5
:10136000400E0028F6D000202D4989680F22120275
:10137000914301432A4A916000BF022011468968C7
:10138000C908C9000143916000BF00BF00BF2448E5
:101390008068382108401028F8D100202049896849
:1013A00007221203914301431D4A916000BF1E486A
:1013B000FFF72AFB0420042806D11C4909690422EE
:1013C00011431A4A116105E0184909690422914341
:1013D000164A116100BF1448FFF71AFC1248FFF7C4
:1013E00017FC03200004FFF7BDFB03208004FFF778
:1013F000B9FB00200A494031496903221203914395
:101400000143074A4032516100BF00BF114649699C
:10141000890089080143516100BF70BD002002406E
:10142000001002408C80FF1F0048E80100E000E04F
:101430000120C006014988607047000000ED00E00F
:1014400010B500F001F810BD00B58FB0202107A83D
:10145000FEF7A2FE182101A8FEF79EFE01208004DF
:101460003B49C96B01433A4AD1631146C96B0140FC
:10147000009100BF00BF02201146496B0143516338
:101480001146496B0140009100BF00BF052001904B
:101490000220029000200390049005900420069002
:1014A00001A92C48FFF720FA01211D2000F0EEFAD7
:1014B0001D20002805DBC206D20E01219140264ADC
:1014C000116000BF00200790E1204002089000203A
:1014D00009900A900B900C200C9000200D900E901B
:1014E00007A91E48FFF79AFB00BF1C484068092166
:1014F000C902884319494860084680682A21884300
:101500001649886000BF00BF0846006820210843D4
:101510001249086000BF00BF084600680121084367
:101520000E49086000BF00BF00BF0C48C069012120
:1015300049050840400D0028F6D000BF0748C069A3
:1015400049000840800D0028EED00FB000BD00001B
:10155000001002400004005000E100E0004800409C
:10156000F8B50546002401200005854200D8F8BDE5
:10157000012000052C1A0646144F22E00120C0026B
:10158000844210D9024631461148FEF75EFE012220
:10159000D2020F49384600F0F7FA0120C00236188F
:1015A0003F18241A0DE0002C00D10BE0A2B2314606
:1015B0000748FEF74AFE22460549384600F0E4FA9D
:1015C00000E0DBE700BF00BFD1E70000003000080B
:1015D000C015002010B52048FFF78AFB002805D071
:1015E00000BF10201C49086200BF00BF1A48FFF767
:1015F00085FB002805D000BF08201749086200BFFE
:1016000000BF1548FFF780FB002804D000BF124838
:10161000406AC4B200BF1148FFF76AFB002805D03A
:1016200000BF10200D49086200BF00BF0B48FFF744
:1016300065FB002805D000BF08200849086200BFEC
:1016400000BF0648FFF760FB002804D000BF034836
:10165000406AC0B2044610BD00480040004C004043
:1016600008B50120154909680143144A1160114663
:1016700009680140009100BF00BF0007FFF766F84E
:10168000FFF726FE0120C006FFF760F800BF0C48F8
:101690004068022108430A49486000BF00BF08466D
:1016A0004068022188430649486000BFFFF71AF8E6
:1016B000FFF7C6FEFEF7F8FD08BD0000401002402F
:1016C0000058014010B5FEF78DFF10BD10B5124C4B
:1016D00003202061606111A0A0611349E161012133
:1016E000890221620021A1626162E1620BA0206691
:1016F0000E4961661021A16600212167E1666167DC
:101700000BA1E01DFEF760FD0AA12046FEF75CFD7F
:101710002020A07110BD0000140000205465726DDF
:10172000696E616C00000000BC000020BC04002059
:1017300052545400534547474552000010B50146E6
:101740000A69CB689A4204D88C68641EE41AA0180F
:1017500001E0D41A601E10BDFFB585B006460F46E5
:101760000F9D0E9C002F01DA784200E0384603906E
:101770000120049007E007990398FEF7CFFC03903F
:101780000498401C0490079903988842F3DA04995E
:101790000898884201D908980490002C06D0002FA0
:1017A00003DB04202840042800D1641E02202840C6
:1017B000002802D00898002815D0E807C00F00289C
:1017C00011D1002C0FD008E0641E2021304600F01B
:1017D000D9F8F068002800DA04E0002C02D0049860
:1017E000A042F1D300BFF06800283ADB002F05DAF1
:1017F0007F422D21304600F0C5F807E00420284044
:10180000042803D12B21304600F0BCF8F0680028F2
:1018100027DB02202840022818D1E807C00F002843
:1018200014D10898002811D1002C0FD008E0641EB4
:101830003021304600F0A6F8F068002800DA04E015
:10184000002C02D00498A042F1D300BFF068002819
:1018500007DB0195009439463046089B079A00F053
:1018600003F809B0F0BD0000FFB585B00646174685
:101870001D460E9C0698029001200390019007E0FF
:1018800039460298FEF734FC02900198401C019002
:101890000298B842F4D20198854200D901950F9878
:1018A000C007C00F00281DD1002C1BD002210F98AB
:1018B0000840022804D1002D02D13020009001E020
:1018C0002020009008E0641E3046009900F05AF88D
:1018D000F068002800DA04E0002C02D00198A04251
:1018E000F1D300BFF068002848DB0FE0012D01D9DB
:1018F0006D1E08E003990698FEF7FAFB0490049821
:10190000B84200D203E0039878430390EEE700BFAB
:1019100000BF03990698FEF7EBFB04900399049827
:1019200048430699081A0690154A0498115C3046F7
:1019300000F028F8F068002800DA07E0394603983C
:10194000FEF7D6FB039003980028E2D100BF0F9862
:10195000C007C00F002811D0002C0FD008E0641E73
:101960002021304600F00EF8F068002800DA04E08C
:10197000002C02D00198A042F1D300BF09B0F0BD05
:10198000281F000870B504460E46A568681C6168EB
:10199000814206D320684655681CA060E068401C60
:1019A000E0606168A06888420DD1A2682168206962
:1019B000FFF796FAA168884203D00020C043E06098
:1019C00001E00020A06070BDF7B582B00446174664
:1019D00000200190E56800BF206900900098A842AF
:1019E00003D90098401B461E04E0A1680098281AFD
:1019F000401C0E1AA068401BB04201D9304601E0DD
:101A0000A068401B0646BE4201D2304600E0384680
:101A100006466168481932460399FEF7A4FB01980F
:101A200080190190039880190390BF1BAD19A0681D
:101A3000A84200D10025E560002FCDD1019805B066
:101A4000F0BDF7B582B004461546E668A068871B6E
:101A5000AF4208D9616888192A460399FEF783FBCB
:101A60007019E06010E0019761688819019A039984
:101A7000FEF779FBE81B0190039AD1196068019A7F
:101A8000FEF771FB0198E06005B0F0BD10B50028CD
:101A900019DB1A4A03231B02D21883089B00D25871
:101AA0008307DC0EFF23A3409A438B071B0E84079A
:101AB000E40EA3401A43114B032424021B1984088B
:101AC000A4001A5118E00E4A03071B0F083B9B089D
:101AD0009B00D2588307DC0EFF23A3409A438B0759
:101AE0001B0E8407E40EA3401A43054B0407240F82
:101AF000083CA408A4001A5110BD000000E100E059
:101B00001CED00E000BF00BF00BFBFF34F8F00BF60
:101B100000BF00BF06480749C86000BF00BF00BF44
:101B2000BFF34F8F00BF00BF00BF00BF00BFFDE786
:101B30000400FA0500ED00E002E008C8121F08C129
:101B4000002AFAD170477047002001E001C1121F3E
:101B5000002AFBD17047000010B5044620680849F0
:101B6000084001214907884208D16068054908609A
:101B70002068FEF7ABFA03480068804710BD0000FC
:101B80000000FE2F0C000020F7B584B0002504985B
:101B90000190059F002003906EE07878000202908B
:101BA00039780298081880B20290BF1C29466A1C36
:101BB00095B24900534A0298505201208002854252
:101BC00056D1002582104F490198FFF723FB0121D0
:101BD00089024D48FEF7E0FA012252024A49019873
:101BE000FFF703FB002430E00122D20246494548BA
:101BF000FEF7DDFA86B2002E18D044A10020FFF7D0
:101C0000D5F9012292023F490198FFF703FB012118
:101C100089023D48FEF7C0FA1420FFF7BFF8012201
:101C2000920239490198FFF7E0FA0CE04148007848
:101C3000420041A10020FFF7B9F93E480078401C5E
:101C40003C49087003E0601C84B2282CCCDD00BF46
:101C5000282C05DD3E490020FFF7A8F9FFF752FFC9
:101C60000121C9020198401801901420FFF796F84D
:101C70000398801C80B203900699039888428CD305
:101C8000002D3CD02A461F490198FFF7C3FA0121D5
:101C900089021D48FEF780FA2A461B490198FFF782
:101CA000A4FA002420E02A4617491648FEF77FFAD6
:101CB00086B2002E15D015A10020FFF777F92A462D
:101CC00010490198FFF7A6FA29460F48FEF764FA73
:101CD0001420FFF763F82A460B490198FFF785FAAD
:101CE00000E003E0601C84B2282CDCDD00BF282C5F
:101CF00005DD17490020FFF759F9FFF703FF07B08B
:101D0000F0BD0000C0050020C00D0020415049205A
:101D100064617461207772697465206661696C65BD
:101D2000642C20777269746520616761696E0D0AA1
:101D300000000000100000204150492025646B2065
:101D400064617461207772697465204F4B0D0A00DD
:101D5000C81F000810B5FFF783FC2CA10020FFF777
:101D600025F937A339A23CA10020FFF71FF943A1B1
:101D70000020FFF71BF9FFF7A5FC4D48007B552815
:101D800022D14B486038006F4A4908604AA10020C0
:101D9000FFF70CF947480068FFF7E2FB4DA1002070
:101DA000FFF704F9AA214248017320211538FEF7F4
:101DB000F3F94FA13E481538FEF706FA01205249C3
:101DC0000870FEF773FC1CE03948007B002818D02F
:101DD0003748007BFF2814D03548007BAA2810D054
:101DE00001213348C17220211538FEF7D5F947A1EA
:101DF0002F481538FEF7E8F9012043490870FEF72F
:101E000055FC4848FFF7A8FE002010BD0D0A3D3DD7
:101E10003D3D3D3D3D3D3D3D3D3D3D573638362008
:101E2000424F4F544C4F414445523D3D3D3D3D3D59
:101E30003D3D3D3D3D3D3D3D3D3D3D3D00000000C6
:101E400031313A33323A3532000000004E6F76209D
:101E500031322032303230000D0A3D3D3D536F6645
:101E60007477617265204275696C742054696D6580
:101E70003A25732025733D3D3D0000000D0A3D3D90
:101E80003D3D3D3D3D3D3D3D3D3D3D3D3D3D3D3D82
:101E90003D3D3D3D3D3D3D3D3D3D3D3D3D3D3D3D72
:101EA0003D3D3D3D3D3D3D3D3D3D3D3D0D0A00003F
:101EB000AC0500200800002053746172742066692C
:101EC000726D77617265207570646174652E2E2E57
:101ED0000D0A00004669726D776172652075706445
:101EE00061746520636F6D706C657465210D0A0007
:101EF0004874747073205570677261646520426F16
:101F00006F74204F6B210000040000205466747031
:101F1000205570677261646520426F6F742046615E
:101F2000696C2100003000083031323334353637E7
:101F3000383941424344454600000000000000009B
:101F40000000000000000000000000000000000091
:101F5000000000000000000001000000020000007E
:101F6000030000000400000006000000070000005D
:101F70000800000009000000000000000000000050
:101F8000000000000000000001000000020000004E
:101F90000300000004000000010000000200000037
:101FA0000400000006000000080000000A00000015
:101FB0000C000000100000002000000040000000A5
:101FC00080000000000100004669726D7761726553
:101FD00020757064617465206661696C65642C208D
:101FE0007772697465206661696C65642C2072651E
:101FF000737461727420616E6420757064617465BD
:1020000020616761696E210D0A0000002C20000824
:102010000000002014000000381B000840200008C9
:1020200014000020AC230000481B00080024F4002A
:10203000000000000000000000000000010000009F
:04000005080000B936
:00000001FF
